:020000040800F2
:10000000800600202902000831020008330200089F
:10001000350200083702000839020008000000001D
:100020000000000000000000000000003B0200088B
:100030003D020008000000003F020008B90400086B
:10004000430200084302000843020008430200087C
:10005000430200084302000843020008430200086C
:10006000430200084302000843020008430200085C
:10007000430200084302000843020008430200084C
:10008000430200084302000843020008430200083C
:10009000430200084302000843020008430200082C
:1000A000430200084302000843020008430200081C
:1000B000430200084302000843020008430200080C
:1000C00043020008430200084302000843020008FC
:1000D00043020008430200084302000843020008EC
:1000E00043020008430200084302000843020008DC
:1000F00043020008430200084302000843020008CC
:1001000043020008430200084302000843020008BB
:1001100043020008430200084302000843020008AB
:10012000430200084302000843020008430200089B
:10013000430200084302000843020008430200088B
:10014000430200084302000843020008430200087B
:10015000430200084302000843020008430200086B
:10016000430200084302000843020008430200085B
:10017000430200084302000843020008430200084B
:10018000430200084302000800F002F800F03CF8C7
:100190000AA090E8000C82448344AAF10107DA45E2
:1001A00001D100F031F8AFF2090EBAE80F0013F0F8
:1001B000010F18BFFB1A43F001031847F0040000B9
:1001C00010050000103A24BF78C878C1FAD8520749
:1001D00024BF30C830C144BF04680C6070470000C1
:1001E0000023002400250026103A28BF78C1FBD840
:1001F000520728BF30C148BF0B6070471FB500F0E1
:100200004FFA1FBD10B510BD00F031F81146FFF7D1
:10021000F5FF00F00FFA00F04FF803B4FFF7F2FF1C
:1002200003BC00F057F80000094880470948004720
:10023000FEE7FEE7FEE7FEE7FEE7FEE7FEE7FEE796
:10024000FEE7FEE704480549054A064B70470000F3
:100250002505000889010008800000208006002094
:10026000800200208002002070477047704775466A
:1002700000F02CF8AE4605006946534620F0070012
:10028000854618B020B5FFF7DDFFBDE820404FF0F0
:1002900000064FF000074FF000084FF0000B21F070
:1002A0000701AC46ACE8C009ACE8C009ACE8C0093D
:1002B000ACE8C0098D46704710B50446AFF3008026
:1002C0002046BDE81040FFF7A8BF00000048704777
:1002D0002000002001491820ABBEFEE726000200E6
:1002E0007047F0B50A4600210023002400BF3DE01E
:1002F000012505FA01F3156805EA03049C4234D18F
:1003000005684F000326BE40B543056015794E00D1
:10031000B5400668354305601579012D02D0157981
:10032000022D16D185684F000326BE40B543856077
:1003300055794E00B540866835438560456801268D
:100340008E40B5434560456896798E40B6B23543D8
:100350004560C5684F000326BE40B543C560D579EA
:100360004E00B540C6683543C560491C1029BFD34F
:10037000F0BD418370470183704700001CB5012127
:10038000042000F015F84FF40050009001208DF883
:10039000040000208DF805008DF806008DF8070098
:1003A00069460248FFF79DFF1CBD0000000802409F
:1003B00029B1064A12680243044B1A6004E0034A5A
:1003C00012688243014B1A607047000030380240C7
:1003D0000CB50020019000903348006840F4803054
:1003E0003149086000BF3048006800F400300090D8
:1003F0000198401C0190009818B90198B0F5A04FE1
:10040000F1D12948006800F4003010B101200090BB
:1004100001E0002000900098012844D1224840309B
:10042000006840F080502049403108601F48006853
:1004300040F440401D4908601B48083000681A49D4
:10044000083108600846006808600846006840F403
:10045000805008601648091F0860081F006840F0B7
:100460008070091F086000BF0F48006800F000702E
:100470000028F9D040F202700E4908600A4808309E
:10048000006820F003000849083108600846006849
:1004900040F00200086000BF03480830006800F028
:1004A0000C000828F8D10CBD003802400070004054
:1004B00019544107003C024016480088002804DD1A
:1004C00014480088401E13490880134813490860E7
:1004D000012017E0114909680968114A11601146A5
:1004E0000968002908DD11460968491E1160114696
:1004F00009680A4A1268116008490968091D074A13
:100500001160401C2128E5DB03480068401C0249BB
:100510000860704700000020001000200400002048
:100520000800002010B51548006840F47000134919
:1005300008601348006840F001001149086000207D
:100540000F49083108600E4800680E4908400C4900
:1005500008600D48091D0860081F006820F480200D
:10056000091F0860002006490C310860FFF730FFC2
:100570004FF0006001498039086010BD88ED00E04F
:1005800000380240FFFFF6FE1030002430B51E4850
:100590001E490860002009E000211C4A1268116011
:1005A0001A490968091D194A1160401C2128F3DB0A
:1005B000002017490880174800684FF47A72B0FB92
:1005C000F2F1481EB0F1807F00D31BE0481E4FF0CF
:1005D000E022506150170F22002807DA13071D0E82
:1005E0000D4B00F00F04241F1D5503E013071C0ED4
:1005F0000A4B1C5400BF00204FF0E02290610720FE
:10060000106100BF30BD0000001000200400002079
:10061000000000200C00002018ED00E000E400E0E5
:100620000349088000BF024909880029FBD17047AF
:1006300000000020FFF7A2FEFFF7A8FF4FF40051D3
:100640001548FFF798FE4FF4FA70FFF7E9FF4FF4F3
:1006500000511148FFF78DFE4FF4FA70FFF7E0FFED
:10066000002417E00D480068A0B954B94FF40051B8
:100670000948FFF780FE01244FF47A7007490860AB
:1006800008E04FF400510448FFF773FE00243220C5
:1006900002490860E6E7000000080240041000205C
:1006A0004FF04070E1EE100A70470000CC060008E1
:1006B0000000002020000000C4010008EC06000833
:1006C0002000002060100000E00100080000000091
:1006D000000000000000000000BD01050000000057
:0C06E000000000000102030406070809E6
:0400000508000229C4
:00000001FF
