:020000040800F2
:1000000090060020850200088D0200088F0200087B
:100010009102000893020008950200080000000009
:10002000000000000000000000000000970200082F
:1000300099020008000000009B0200082108000847
:100040009F0200089F0200089F0200089F0200080C
:100050009F0200089F0200089F0200089F020008FC
:100060009F0200089F0200089F0200089F020008EC
:100070009F0200089F0200089F0200089F020008DC
:100080009F0200089F0200089F0200089F020008CC
:100090009F0200089F0200089F0200089F020008BC
:1000A0009F0200089F0200089F0200089F020008AC
:1000B0009F0200089F0200089F0200089F0200089C
:1000C0009F0200089F0200089F0200089F0200088C
:1000D0009F0200089F0200089F0200089F0200087C
:1000E0009F0200089F0200089F0200089F0200086C
:1000F0009F0200089F0200089F0200089F0200085C
:100100009F0200089F0200089F0200089F0200084B
:100110009F0200089F0200089F0200089F0200083B
:100120009F0200089F0200089F0200089F0200082B
:100130009F0200089F0200089F0200089F0200081B
:100140009F0200089F0200089F0200089F0200080B
:100150009F0200089F0200089F0200089F020008FB
:100160009F0200089F0200089F0200089F020008EB
:100170009F0200089F0200089F0200089F020008DB
:100180009F0200089F02000800F002F800F06AF8E1
:100190000AA090E8000C82448344AAF10107DA45E2
:1001A00001D100F05FF8AFF2090EBAE80F0013F0CA
:1001B000010F18BFFB1A43F001031847CC0B0000D6
:1001C0000C0C00000A444FF0000C10F8013B13F037
:1001D000070408BF10F8014B1D1108BF10F8015BA0
:1001E000641E05D010F8016B641E01F8016BF9D193
:1001F00013F0080F1EBF10F8014BAD1C0C1B09D1EA
:100200006D1E58BF01F801CBFAD505E014F8016B5B
:1002100001F8016B6D1EF9D59142D6D370470000ED
:10022000103A24BF78C878C1FAD8520724BF30C822
:1002300030C144BF04680C607047000000230024F4
:1002400000250026103A28BF78C1FBD8520728BFE6
:1002500030C148BF0B6070471FB500F076FD1FBD71
:1002600010B510BD00F063F81146FFF7F5FF00F080
:1002700011FC00F081F803B4FFF7F2FF03BC00F0BB
:1002800089F800000948804709480047FEE7FEE773
:10029000FEE7FEE7FEE7FEE7FEE7FEE7FEE7FEE736
:1002A00004480549054A064B7047000069080008E4
:1002B0008901000890000020900600209002002094
:1002C0009002002010B5203AC0F00B80B1E8185021
:1002D000203AA0E81850B1E81850A0E81850BFF430
:1002E000F5AF5FEA027C24BFB1E81850A0E81850CF
:1002F00044BF18C918C0BDE810405FEA827C24BF23
:1003000051F8043B40F8043B08BF7047D20728BFB0
:1003100031F8023B48BF11F8012B28BF20F8023BFF
:1003200048BF00F8012B704770477047704775460B
:1003300000F02CF8AE4605006946534620F0070051
:10034000854618B020B5FFF7ABFFBDE820404FF061
:1003500000064FF000074FF000084FF0000B21F0AF
:100360000701AC46ACE8C009ACE8C009ACE8C0097C
:10037000ACE8C0098D46704710B50446AFF3008065
:100380002046BDE81040FFF776BF000000487047E8
:100390002C00002001491820ABBEFEE72600020019
:1003A0007047F0B50A4600210023002400BF3DE05D
:1003B000012505FA01F3156805EA03049C4234D1CE
:1003C00005684F000326BE40B543056015794E0011
:1003D000B5400668354305601579012D02D01579C1
:1003E000022D16D185684F000326BE40B5438560B7
:1003F00055794E00B54086683543856045680126CD
:100400008E40B5434560456896798E40B6B2354317
:100410004560C5684F000326BE40B543C560D57929
:100420004E00B540C6683543C560491C1029BFD38E
:10043000F0BD418370470183704700001CB5012166
:10044000022000F03DF940F2FF70009001208DF88D
:1004500004008DF8050000208DF806008DF80700D7
:1004600069460248FFF79DFF1CBD000000040240E2
:1004700010B50020064908600F2000F001FB4FF482
:100480008070034908600F2000F0FAFA10BD0000E8
:100490001404024010B5FFF7D1FFFFF7E9FF112068
:1004A00000F016FA142000F0EBFAF22000F010FA37
:1004B0001C2000F01BFAA32000F018FA322000F0F4
:1004C00015FA022000F012FAB22000F00FFA122002
:1004D00000F00CFAFF2000F009FA122000F006FAF2
:1004E000002000F003FAF12000F0F2F9362000F0CD
:1004F000FDF9A42000F0FAF9F82000F0E9F9212034
:1005000000F0F4F9042000F0F1F9F92000F0E0F92E
:10051000002000F0EBF9082000F0E8F9C02000F01E
:10052000D7F90D2000F0E2F90D2000F0DFF9C1202D
:1005300000F0CEF9432000F0D9F9002000F0D6F900
:10054000C22000F0C5F9002000F0D0F9C52000F06D
:10055000BFF9002000F0CAF9482000F0C7F9E020F8
:1005600000F0B6F90F2000F0C1F9242000F0BEF928
:100570001C2000F0BBF90A2000F0B8F90F2000F0B1
:10058000B5F9082000F0B2F9432000F0AFF9882057
:1005900000F0ACF9322000F0A9F90F2000F0A6F924
:1005A000102000F0A3F9062000F0A0F90F2000F0C1
:1005B0009DF9072000F09AF9002000F097F9E1205A
:1005C00000F086F90F2000F091F9382000F08EF944
:1005D000302000F08BF9092000F088F90F2000F09E
:1005E00085F90F2000F082F94E2000F07FF9772086
:1005F00000F07CF93C2000F079F9072000F076F952
:10060000102000F073F9052000F070F9232000F0AD
:100610006DF91B2000F06AF9002000F067F9202036
:1006200000F056F9362000F053F9282000F05EF96A
:100630003A2000F04DF9552000F058F92A2000F03A
:1006400047F9002000F052F9002000F04FF9012096
:1006500000F04CF9DF2000F049F92B2000F038F9C8
:10066000002000F043F9002000F040F9012000F0E4
:100670003DF93F2000F03AF9782000F001FA2920F6
:1006800000F026F92C2000F023F910BD1CB5012143
:10069000042000F015F84FF40050009001208DF870
:1006A000040000208DF805008DF806008DF8070085
:1006B00069460248FFF775FE1CBD000000080240B5
:1006C00029B1064A12680243044B1A6004E0034A47
:1006D00012688243014B1A607047000030380240B4
:1006E0002DE9F04381460C4615461E46079F2A20F9
:1006F00000F0EEF8204600F007F9304600F004F96B
:100700002B2000F0E5F8284600F0FEF8384600F00F
:10071000FBF82C2000F0DCF8301B401C791B00FBA0
:1007200001F804E0484600F0EFF8A8F10108B8F13C
:10073000000FF7D1BDE8F0830CB5002001900090C8
:100740003348006840F480303149086000BF3048C9
:10075000006800F4003000900198401C019000985F
:1007600018B90198B0F5A04FF1D12948006800F4FC
:10077000003010B10120009001E0002000900098AE
:10078000012844D122484030006840F08050204980
:10079000403108601F48006840F440401D4908602F
:1007A0001B48083000681A4908310860084600688C
:1007B00008600846006840F4805008601648091F29
:1007C0000860081F006840F08070091F086000BFC3
:1007D0000F48006800F000700028F9D040F2027065
:1007E0000E4908600A480830006820F003000849F4
:1007F000083108600846006840F00200086000BF49
:1008000003480830006800F00C000828F8D10CBD3F
:10081000003802400070004019544107003C02407B
:100820000F480088002804DD0D480088401E0C4950
:10083000088001200CE00B4951F82010002906DD4A
:10084000084951F82010491E064A42F82010401C61
:100850002128F0DB03480068401C0249086070470B
:10086000120000200010002010B51548006840F468
:100870007000134908601348006840F001001149F6
:10088000086000200F49083108600E4800680E49D2
:1008900008400C4908600D48091D0860081F0068E1
:1008A00020F48020091F0860002006490C310860F0
:1008B000FFF742FF4FF0006001498039086010BD2A
:1008C00088ED00E000380240FFFFF6FE1030002403
:1008D00040F48071044A116040F44071116040F4AA
:1008E00080711160704700001404024040F4A06160
:1008F000044A116040F4E061116040F4A0611160AD
:1009000070470000140402400146081240F4A0623F
:10091000094B1A6040F4E0621A6040F4A0621A6069
:10092000C8B240F4A0621A6040F4E0621A6040F479
:10093000A0621A6070470000140402402DE9F84FCD
:1009400006460C461546002000904DE0294F0098C1
:10095000411C89B20091305C20381FFA80F900BF39
:1009600007EB09172A20FFF7B3FF2046FFF7CCFF5C
:10097000E01D84B22046FFF7C7FF2B20FFF7A8FF3A
:100980002846FFF7C1FF05F10F0085B22846FFF7A3
:10099000BBFF2C20FFF79CFF4FF0000A1BE04FF439
:1009A00000484FF0000B10E0388800EA080020B142
:1009B00011480088FFF7A8FF03E010480088FFF700
:1009C000A3FF4FEA68080BF1010BBBF1100FEBDB43
:1009D000BF1C0AF1010ABAF1080FE0DBA5F10F0014
:1009E00085B2601C84B200BF0098305C0028ADD195
:1009F000BDE8F88F00200008140000201600002039
:100A000030B5002004E00021184A42F82010401CB4
:100A10002228F8DB002016490880164800684FF4A9
:100A20007A72B0FBF2F1481EB0F1807F00D31BE078
:100A3000481E4FF0E022506150170F22002807DABD
:100A400013071D0E0C4B00F00F04241F1D5503E06F
:100A500013071C0E094B1C5400BF00204FF0E0226E
:100A600090610720106100BF30BD00000010002021
:100A7000120000201800002018ED00E000E400E063
:100A80000349088000BF024909880029FBD170474B
:100A9000120000208EB0FFF7F9FDFFF7B1FFFFF75E
:100AA000F9FC4FF49B704FF4EB730A22114600904F
:100AB0004FF6FF70FFF714FE4FF49B704FF4EB738B
:100AC0000A22114600904FF47F40FFF709FE4FF4D1
:100AD0009B704FF4EB730A22114600904FF47F6035
:100AE000FFF7FEFD4FF49B704FF4EB730A221146A3
:100AF0000090FF20FFF7F4FD4FF49B704FF4EB7371
:100B00000A22114600904FF47F40FFF7E9FD4FF4B1
:100B10009B704FF4EB730A22114600904FF47F60F4
:100B2000FFF7DEFD4FF49B704FF4EB730A22114682
:100B30000090FF20FFF7D4FD40F23F1040F2DF139A
:100B40000022114600904FF6FF70FFF7C9FD4FF4E9
:100B50009F704FF4EF730122114600900020FFF7C1
:100B6000BFFD4FF49B704FF4EB730A2211460090C7
:100B70004FF47870FFF7B4FD4FF6FF702A490880F4
:100B800000202A4908803422294901A8FFF79AFB4E
:100B90001422FA2101A8FFF7D1FE01A925A000F037
:100BA00057F82822FA2101A8FFF7C8FE142211469F
:100BB0002248FFF7C3FE2822142121A0FFF7BEFE22
:100BC0004FF6FF750026FF242DE01F488068A0B96E
:100BD0004EB94FF400511D48FFF72DFC012632207D
:100BE0001949886009E04FF400511848FFF721FCCB
:100BF00000264FF47A70144988604FF49B7000907F
:100C0000A0B24FF4EB7364220A21FFF769FD294675
:100C10006D1C88B201A900F026F83C22FA2101A837
:100C2000FFF78CFE641CD0E71400002016000020A3
:100C3000540D000833343536370000000000002022
:100C40006D65737361676500001000200008024045
:100C500010B5002200BF03788B54521C10F8014BD2
:100C6000002CF8D110BD70B505462A462B46002051
:100C7000002442F21076B2420DDB92FBF6F6B3B2DC
:100C800040F271265E43A2EB0616B2B203F13006C3
:100C90000E54012401E020260E54461CF0B2B2F599
:100CA0007A7F10DB4FF47A7692FBF6F6B3B203EB61
:100CB0004306C6EBC316A2EBC606B2B203F130067A
:100CC0000E54012405E014B920260E5401E030260C
:100CD0000E54461CF0B2642A0FDB642692FBF6F633
:100CE000B3B203EBC30606EB0316A2EB8606B2B261
:100CF00003F130060E54012405E014B920260E54E9
:100D000001E030260E54461CF0B20A2A0DDB0A26FA
:100D100092FBF6F6B3B203EB8306A2EB4606B2B241
:100D200003F130060E54012405E014B920260E54B8
:100D300001E030260E54461CF0B202F130060E548B
:100D4000461CF0B200260E5470BD4FF04070E1EE2C
:100D5000100A70473132333435363738000000001E
:100D60000000000000000000000000000000000083
:100D70000000000000000000000000000000000073
:100D80000000000000000000000000080000000853
:100D9000002E00009E01000800000008000000086E
:100DA000002E00009E010008002E00080000002018
:100DB0002C000000200200082C2E00082C0000202F
:100DC000581000003C020008000000000000000075
:100DD0000000000000000000000000000000000013
:100DE0000000000000000000000000000000000003
:100DF00000000000000000000000000000000000F3
:100E000000000000000000000000000000000000E2
:1020100000003C183C3C183C181818000018000040
:10202000660066660024000000000000000000005A
:1020300000006C00FE6C6C6C6C6C6CFE006C000044
:102040001818C67CC0C27CC00606C686187C00185C
:1020500000000000C2000CC63018C66000860000F8
:1020600000006C386C6C7638CCDCCCCC0076000090
:102070003000303000600000000000000000000070
:102080000000180C3030303030301830000C0000B8
:10209000000018300C0C0C0C0C0C180C003000005C
:1020A0000000000000003C663CFF006600000000ED
:1020B0000000000000001818187E00180000000042
:1020C0000000000000000000000018183018000098
:1020D000000000000000000000FE00000000000002
:1020E00000000000000000000000180000180000C0
:1020F0000000000002000C063018C06000800000E4
:1021000000006C38C6C6D6C6C6C66CC6003800000D
:10211000000038181878181818181818007E0000D1
:102120000000C67C0C063018C060C6C000FE00006F
:102130000000C67C0606063C0606C606007C0000BB
:1021400000001C0C6C3CFECC0C0C0C0C001E0000A7
:102150000000C0FEC0C006FC0606C606007C0000EB
:1021600000006038C0C0C6FCC6C6C6C6007C000001
:102170000000C6FE0606180C30303030003000007B
:102180000000C67CC6C6C67CC6C6C6C6007C0000AB
:102190000000C67CC6C67EC606060C060078000097
:1021A00000000000181800001800001800000000CF
:1021B000000000001818000018003018000000008F
:1021C00000000600180C60301830060C00000000FB
:1021D000000000007E000000007E00000000000003
:1021E000000060001830060C180C60300000000081
:1021F0000000C67C0CC6181818181800001800003B
:1022000000007C00C6C6D6DAD6D6C0DC007C000052
:1022100000003810C66CC6C6C6FEC6C600C60000A2
:10222000000066FC6666667C6666666600FC00000A
:102230000000663CC0C2C0C0C0C066C2003C000016
:1022400000006CF86666666666666C6600F80000FC
:10225000000066FE686268786060666200FE0000EA
:10226000000066FE686268786060606000F00000F0
:102270000000663CC0C2C0C0C6DE66C6003A0000B0
:102280000000C6C6C6C6C6FEC6C6C6C600C6000094
:102290000000183C1818181818181818003C0000EE
:1022A00000000C1E0C0C0C0CCCCCCCCC007800002C
:1022B000000066E66C6678786C6C666600E6000086
:1022C000000060F0606060606060666200FE0000B8
:1022D0000000EEC6FEEED6D6C6C6C6C600C60000D4
:1022E0000000C6C6F6E6DEFEC6CEC6C600C60000C4
:1022F0000000C67CC6C6C6C6C6C6C6C6007C0000F0
:10230000000066FC66666666607C606000F0000047
:102310000000C67CC6C6C6C6C6C6DED60C7C000E8D
:10232000000066FC66667C66666C666600E6000019
:102330000000C67C60C61830060CC6C6007C0000D3
:1023400000007E7E185A181818181818003C000053
:102350000000C6C6C6C6C6C6C6C6C6C6007C000045
:102360000000C6C6C6C6C6C6C6C6386C0010000089
:102370000000C6C6C6C6D6C6D6D6EEFE006C0000A5
:102380000000C6C66C6C387C6C7CC66C00C6000055
:102390000000666666666666183C1818003C000019
:1023A0000000C6FE0C863018C060C6C200FE0000E9
:1023B0000000303C3030303030303030003C0000F5
:1023C00000000000C08070E01C38060E0002000013
:1023D00000000C3C0C0C0C0C0C0C0C0C003C000019
:1023E0003810C66C00000000000000000000000073
:1023F000000000000000000000000000FF000000DE
:102400003030001800000000000000000000000054
:102410000000000078007C0CCCCCCCCC0076000016
:10242000000060E07860666C66666666007C0000AE
:10243000000000007C00C0C6C0C0C6C0007C000018
:1024400000000C1C3C0CCC6CCCCCCCCC007600003E
:10245000000000007C00C6C6C0FEC6C0007C0000B4
:1024600000006C38606460F06060606000F0000044
:10247000000000007600CCCCCCCC7CCCCC0C00781E
:10248000000060E06C6066766666666600E60000E6
:10249000000018183800181818181818003C000008
:1024A000000006060E000606060606066666003CE6
:1024B000000060E066606C6C6C78666C00E60000A2
:1024C000000018381818181818181818003C0000C0
:1024D00000000000EC00D6FED6D6C6D600C600002E
:1024E00000000000DC006666666666660066000046
:1024F000000000007C00C6C6C6C6C6C6007C000040
:1025000000000000DC00666666666666607C00F0BF
:10251000000000007600CCCCCCCCCCCC0C7C001ED7
:1025200000000000DC0066766060606000F0000083
:10253000000000007C0060C61830C60C007C000063
:1025400000003010FC30303030303630001C0000DD
:1025500000000000CC00CCCCCCCCCCCC0076000071
:10256000000000006600666666663C6600180000B3
:1025700000000000C600D6C6D6D6FED6006C00000D
:1025800000000000C6006C6C38386C6C00C600009F
:1025900000000000C600C6C6C6C67EC6C606007CD1
:1025A00000000000FE000CC63018C66000FE0000EF
:1025B0000000180E1818701818181818000E0000CF
:1025C000000018181818001818181818001800001B
:1025D0000000187018180E1818181818007000004D
:1025E0000C063F1E0E1CC00660C03860071F0000AE
:1025F0000000C00030E018303018E03000C00000AB
:1026000000000000000000000000000000000000CA
:1026100000000000000000000000000000000000BA
:1026200000000000000000000000000000000000AA
:10263000000000000000000000000000000000009A
:102A00000000361EC666FEC6C6C6C6C600C60000A4
:102A1000000062FE6062667C6666666600FC00001E
:102A2000000066FC6666667C6666666600FC000002
:102A3000000062FE606260606060606000F0000044
:102A40000000361E6666666666666666C3FF0081BF
:102A5000000066FE686268786060666200FE0000E2
:102A60000000D6D6D6D67C7CD6D6D6D600D60000E8
:102A70000000C67C0606063C0606C606007C000072
:102A80000000C6C6CECED6D6E6E6C6C600C6000054
:102A9000386CC6D6CECED6D6E6E6C6C600C6000090
:102AA000000066E66C6C78786C6C666C00E6000082
:102AB0000000361EC666C6C6C6C6C6C600C600002C
:102AC0000000EEC6FEEED6D6C6C6C6C600C60000DC
:102AD0000000C6C6C6C6C6FEC6C6C6C600C600003C
:102AE0000000C67CC6C6C6C6C6C6C6C6007C0000F8
:102AF0000000C6FEC6C6C6C6C6C6C6C600C600001C
:102B0000000066FC66667C666060606000F0000045
:102B10000000663CC0C2C0C0C0C066C2003C00002D
:102B200000005A7E1818181818181818003C0000D1
:102B30000000C6C6C6C67EC60606C606007C0000E5
:102B4000106CD67CD6D6D6D6D6D6D6D6107C006C0F
:102B50000000C6C66C6C387C6C7CC66C00C600007D
:102B60000000CCCCCCCCCCCCCCCCCCCC06FE000663
:102B70000000C6C6C6C67EC60606060600060000DB
:102B80000000D6D6D6D6D6D6D6D6D6D600FE0000EB
:102B90000000D6D6D6D6D6D6D6D6D6D603FF0003D4
:102BA0000000B0F83030363C36363636007C000057
:102BB0000000C6C6C6C6DAF6DADADADA00F60000CF
:102BC000000060F06060667C6666666600FC00007F
:102BD0000000C67C2606263E0606C606007C0000CF
:102BE0000000D6CCD6D6D6F6D6D6D6D600CC0000A7
:102BF0000000663E66663E666666666600E6000043
:102C00000000000078007C0CCCCCCCCC007600001E
:102C100002003C066060667C66666666003C0000FA
:102C200000000000FC006666667C666600FC000032
:102C3000000000007E00323230303030007800007A
:102C4000000000001E00363666666666C3FF00C3DD
:102C5000000000007C00C6C6C0FEC6C0007C0000AC
:102C600000000000D600D6D6D67CD6D600D600000E
:102C7000000000003C000666060C6606003C0000F2
:102C800000000000C600CEC6D6D6C6E600C60000CC
:102C900000006C00D638CEC6D6D6C6E600C6000008
:102CA00000000000E600786C78706C6C00E60000B4
:102CB000000000001E00663666666666006600005C
:102CC00000000000C600EEEED6FEC6D600C600002C
:102CD00000000000C600C6C6C6FEC6C600C600008C
:102CE000000000007C00C6C6C6C6C6C6007C000048
:102CF00000000000FE00C6C6C6C6C6C600C600006C
:102D000000000000DC00666666666666607C00F0B7
:102D1000000000007C00C0C6C0C0C6C0007C00002F
:102D2000000000007E00185A18181818003C000017
:102D300000000000C600C6C6C6C67EC6C606007C29
:102D400000006C007C10D6D6D6D6D6D6107C006C8F
:102D500000000000C6006C6C38386C6C00C60000C7
:102D600000000000CC00CCCCCCCCCCCC06FE0006C5
:102D700000000000C600C6C67EC6067E0006000033
:102D800000000000D600D6D6D6D6D6D600FE00006B
:102D900000000000D600D6D6D6D6D6D603FE000355
:102DA00000000000F80030B0363C3636007C0000F1
:102DB00000000000C600C6C6DAF6DADA00F6000047
:102DC00000000000F0006060667C666600FC0000A9
:102DD000000000003C000666061E6606003C00007F
:102DE00000000000CC00D6D6D6F6D6D600CC000027
:102DF000000000003E0066663E66666600E6000073
:102E00007A6572EDE3E5E3E5EAE3EAED77676664A8
:102E1000000000000000000000BD010500000000EF
:0C2E20000000000001020304060708097E
:040000050800028568
:00000001FF
