:020000040800F2
:10000000600600200D020008150200081702000813
:10001000190200081B0200081D0200080000000071
:100020000000000000000000000000001F020008A7
:100030002102000800000000230200082502000839
:1000400027020008270200082702000827020008EC
:1000500027020008270200082702000827020008DC
:1000600027020008270200082702000827020008CC
:1000700027020008270200082702000827020008BC
:1000800027020008270200082702000827020008AC
:10009000270200082702000827020008270200089C
:1000A000270200082702000827020008270200088C
:1000B000270200082702000827020008270200087C
:1000C000270200082702000827020008270200086C
:1000D000270200082702000827020008270200085C
:1000E000270200082702000827020008270200084C
:1000F000270200082702000827020008270200083C
:10010000270200082702000827020008270200082B
:10011000270200082702000827020008270200081B
:10012000270200082702000827020008270200080B
:1001300027020008270200082702000827020008FB
:1001400027020008270200082702000827020008EB
:1001500027020008270200082702000827020008DB
:1001600027020008270200082702000827020008CB
:1001700027020008270200082702000827020008BB
:10018000270200082702000800F002F800F02EF80D
:100190000AA090E8000C82448344AAF10107DA45E2
:1001A00001D100F023F8AFF2090EBAE80F0013F006
:1001B000010F18BFFB1A43F001031847C0020000EB
:1001C000D00200000023002400250026103A28BF9A
:1001D00078C1FBD8520728BF30C148BF0B607047B9
:1001E0001FB500F045F91FBD10B510BD00F031F886
:1001F0001146FFF7F5FF00F00FF900F04FF803B4D8
:10020000FFF7F2FF03BC00F057F8000009488047F1
:1002100009480047FEE7FEE7FEE7FEE7FEE7FEE7E8
:10022000FEE7FEE7FEE7FEE704480549054A064B00
:1002300070470000B1030008890100086000002039
:1002400060060020600200206002002070477047B6
:100250007047754600F02CF8AE46050069465346D7
:1002600020F00700854618B020B5FFF7DDFFBDE898
:1002700020404FF000064FF000074FF000084FF00D
:10028000000B21F00701AC46ACE8C009ACE8C0099E
:10029000ACE8C009ACE8C0098D46704710B504460B
:1002A000AFF300802046BDE81040FFF7A8BF000074
:1002B000004870470000002001491820ABBEFEE74F
:1002C00026000200704700000CB50020019000904D
:1002D0003348006840F480303149086000BF30483E
:1002E000006800F4003000900198401C01900098D4
:1002F00018B90198B0F5A04FF1D12948006800F471
:10030000003010B10120009001E000200090009822
:10031000012844D122484030006840F080502049F4
:10032000403108601F48006840F440401D490860A3
:100330001B48083000681A49083108600846006800
:1003400008600846006840F4805008601648091F9D
:100350000860081F006840F08070091F086000BF37
:100360000F48006800F000700028F9D040F20270D9
:100370000E4908600A480830006820F00300084968
:10038000083108600846006840F00200086000BFBD
:1003900003480830006800F00C000828F8D10CBDB4
:1003A000003802400070004019544107003C0240F0
:1003B00010B51548006840F47000134908601348F0
:1003C000006840F001001149086000200F49083121
:1003D00008600E4800680E4908400C4908600D4846
:1003E000091D0860081F006820F48020091F0860AC
:1003F000002006490C310860FFF766FF4FF00060EF
:1004000001498039086010BD88ED00E000380240E5
:10041000FFFFF6FE103000241249096841F0040184
:10042000104A11604FF0AA410F4A11600021121DBD
:100430001160121D116014E04FF470410A4A143229
:100440001160002000E0401C08498842FBD30021D5
:10045000054A14321160002000E0401C0349884224
:10046000FBD3E9E73038024000080240809698004C
:100470004FF04070E1EE100A704700008C04000855
:0C0480000000002060060000C40100081D
:040000050800020DE0
:00000001FF
