:020000040800F2
:100000008806002029020008310200083302000897
:10001000350200083702000839020008000000001D
:100020000000000000000000000000003B0200088B
:100030003D020008000000003F020008D107000850
:10004000430200084302000843020008430200087C
:10005000430200084302000843020008430200086C
:10006000430200084302000843020008430200085C
:10007000430200084302000843020008430200084C
:10008000430200084302000843020008430200083C
:10009000430200084302000843020008430200082C
:1000A000430200084302000843020008430200081C
:1000B000430200084302000843020008430200080C
:1000C00043020008430200084302000843020008FC
:1000D00043020008430200084302000843020008EC
:1000E00043020008430200084302000843020008DC
:1000F00043020008430200084302000843020008CC
:1001000043020008430200084302000843020008BB
:1001100043020008430200084302000843020008AB
:10012000430200084302000843020008430200089B
:10013000430200084302000843020008430200088B
:10014000430200084302000843020008430200087B
:10015000430200084302000843020008430200086B
:10016000430200084302000843020008430200085B
:10017000430200084302000843020008430200084B
:10018000430200084302000800F002F800F03CF8C7
:100190000AA090E8000C82448344AAF10107DA45E2
:1001A00001D100F031F8AFF2090EBAE80F0013F0F8
:1001B000010F18BFFB1A43F0010318472C09000078
:1001C0004C090000103A24BF78C878C1FAD8520709
:1001D00024BF30C830C144BF04680C6070470000C1
:1001E0000023002400250026103A28BF78C1FBD840
:1001F000520728BF30C148BF0B6070471FB500F0E1
:100200006DFC1FBD10B510BD00F031F81146FFF7B1
:10021000F5FF00F0E1FB00F04FF803B4FFF7F2FF49
:1002200003BC00F057F80000094880470948004720
:10023000FEE7FEE7FEE7FEE7FEE7FEE7FEE7FEE796
:10024000FEE7FEE704480549054A064B70470000F3
:100250003D08000889010008880000208806002069
:10026000880200208802002070477047704775465A
:1002700000F02CF8AE4605006946534620F0070012
:10028000854618B020B5FFF7DDFFBDE820404FF0F0
:1002900000064FF000074FF000084FF0000B21F070
:1002A0000701AC46ACE8C009ACE8C009ACE8C0093D
:1002B000ACE8C0098D46704710B50446AFF3008026
:1002C0002046BDE81040FFF7A8BF00000048704777
:1002D0002400002001491820ABBEFEE726000200E2
:1002E0007047F0B50A4600210023002400BF3DE01E
:1002F000012505FA01F3156805EA03049C4234D18F
:1003000005684F000326BE40B543056015794E00D1
:10031000B5400668354305601579012D02D0157981
:10032000022D16D185684F000326BE40B543856077
:1003300055794E00B540866835438560456801268D
:100340008E40B5434560456896798E40B6B23543D8
:100350004560C5684F000326BE40B543C560D579EA
:100360004E00B540C6683543C560491C1029BFD34F
:10037000F0BD418370470183704700001CB5012127
:10038000022000F075F940F2FF70009001208DF816
:1003900004008DF8050000208DF806008DF8070098
:1003A00069460648FFF79DFF0F200549088008466B
:1003B00000880249143108601CBD0000000402409E
:1003C0000C00002010B50020064908600F2000F046
:1003D000F9FA4FF48070034908600F2000F0F2FA38
:1003E00010BD00001404024010B5FFF7C7FFFFF76F
:1003F000E9FF112000F056FA142000F0E3FAF22091
:1004000000F050FA1C2000F06BFAA32000F068FA0C
:10041000322000F065FA022000F062FAB22000F00B
:100420005FFA122000F05CFAFF2000F059FA122067
:1004300000F056FA002000F053FAF12000F032FAF2
:10044000362000F04DFAA42000F04AFAF82000F01F
:1004500029FA212000F044FA042000F041FAF920A2
:1004600000F020FA002000F03BFA082000F038FAF3
:10047000C02000F017FA0D2000F032FA0D2000F035
:100480002FFAC12000F00EFA432000F029FA0020D4
:1004900000F026FAC22000F005FA002000F020FA51
:1004A000C52000F0FFF9002000F01AFA482000F003
:1004B00017FAE02000F0F6F90F2000F011FA2420DE
:1004C00000F00EFA1C2000F00BFA0A2000F008FAE7
:1004D0000F2000F005FA082000F002FA432000F097
:1004E000FFF9882000F0FCF9322000F0F9F90F2024
:1004F00000F0F6F9102000F0F3F9062000F0F0F912
:100500000F2000F0EDF9072000F0EAF9002000F0DC
:10051000E7F9E12000F0C6F90F2000F0E1F93820FA
:1005200000F0DEF9302000F0DBF9092000F0D8F906
:100530000F2000F0D5F90F2000F0D2F94E2000F086
:10054000CFF9772000F0CCF93C2000F0C9F9072062
:1005500000F0C6F9102000F0C3F9052000F0C0F942
:10056000232000F0BDF91B2000F0BAF9002000F0B4
:10057000B7F9202000F096F9362000F093F92820F2
:1005800000F0AEF93A2000F08DF9552000F0A8F9FE
:100590002A2000F087F9002000F0A2F9002000F0E6
:1005A0009FF9012000F09CF9DF2000F099F92B2041
:1005B00000F078F9002000F093F9002000F090F9A5
:1005C000012000F08DF93F2000F08AF9782000F03A
:1005D000F9F9292000F066F92C2000F063F910BD2C
:1005E0001CB50121042000F043F84FF400500090A6
:1005F00001208DF8040000208DF805008DF806001C
:100600008DF8070069460248FFF76BFE1CBD00002D
:100610000008024010B54FF400511448FFF7ABFE3C
:100620004FF4FA7000F0CEF94FF400510F48FFF785
:10063000A0FE4FF4FA7000F0C5F94FF400510B48DA
:10064000FFF799FE4FF4FA7000F0BCF94FF4005137
:100650000648FFF78EFE4FF4FA7000F0B3F94FF43E
:1006600000510248FFF787FE10BD0000000802405D
:1006700029B1064A12680243044B1A6004E0034A97
:1006800012688243014B1A60704700003038024004
:100690002DE9F04381460C4615461E46079F2A2049
:1006A00000F000F9204600F039F9304600F036F944
:1006B0002B2000F0F7F8284600F030F9384600F01B
:1006C0002DF92C2000F0EEF8301B401C791B00FBAC
:1006D00001F804E0484600F021F9A8F10108B8F15A
:1006E000000FF7D1BDE8F0830CB500200190009019
:1006F0003348006840F480303149086000BF30481A
:10070000006800F4003000900198401C01900098AF
:1007100018B90198B0F5A04FF1D12948006800F44C
:10072000003010B10120009001E0002000900098FE
:10073000012844D122484030006840F080502049D0
:10074000403108601F48006840F440401D4908607F
:100750001B48083000681A490831086008460068DC
:1007600008600846006840F4805008601648091F79
:100770000860081F006840F08070091F086000BF13
:100780000F48006800F000700028F9D040F20270B5
:100790000E4908600A480830006820F00300084944
:1007A000083108600846006840F00200086000BF99
:1007B00003480830006800F00C000828F8D10CBD90
:1007C000003802400070004019544107003C0240CC
:1007D00016480088002804DD14480088401E13498C
:1007E0000880134813490860012017E0114909687F
:1007F0000968114A116011460968002908DD11468F
:100800000968491E1160114609680A4A1268116098
:1008100008490968091D074A1160401C2128E5DBC9
:1008200003480068401C024908607047000000202F
:1008300000100020040000200800002010B515481A
:10084000006840F47000134908601348006840F0E5
:1008500001001149086000200F49083108600E4866
:1008600000680E4908400C4908600D48091D0860E1
:10087000081F006820F48020091F08600020064936
:100880000C310860FFF730FF4FF0006001498039FC
:10089000086010BD88ED00E000380240FFFFF6FE62
:1008A0001030002440F480710B4A118011460988F1
:1008B0000A4A116040F44071074A118011460988C4
:1008C000064A116040F48071034A1180114609887C
:1008D000024A1160704700000C000020140402401E
:1008E00040F4A0610B4A1180114609880A4A116040
:1008F00040F4E061074A118011460988064A1160F8
:1009000040F4A061034A118011460988024A11602F
:10091000704700000C0000201404024000B503469C
:100920001812FFF7DDFFD8B2FFF7DAFF00BD0000B5
:1009300030B51E481E490860002009E000211C4A0D
:10094000126811601A490968091D194A1160401C92
:100950002128F3DB002017490880174800684FF46E
:100960007A72B0FBF2F1481EB0F1807F00D31BE039
:10097000481E4FF0E022506150170F22002807DA7E
:1009800013071D0E0D4B00F00F04241F1D5503E02F
:1009900013071C0E0A4B1C5400BF00204FF0E0222E
:1009A00090610720106100BF30BD000000100020E2
:1009B00004000020000000201000002018ED00E0DE
:1009C00000E400E00349088000BF024909880029CB
:1009D000FBD170470000002008B5FFF701FEFFF7CC
:1009E000A7FFFFF701FD4FF49B704FF4EB730A2252
:1009F000114600904FF6FF70FFF74AFE4FF49B70D0
:100A00004FF4EB730A22114600904FF47F40FFF73A
:100A10003FFE4FF49B704FF4EB730A221146009097
:100A20004FF47F60FFF734FE4FF49B704FF4EB738D
:100A30000A2211460090FF20FFF72AFE4FF49B7018
:100A40004FF4EB730A22114600904FF47F40FFF7FA
:100A50001FFE4FF49B704FF4EB730A221146009077
:100A60004FF47F60FFF714FE4FF49B704FF4EB736D
:100A70000A2211460090FF20FFF70AFEFFF7CAFD89
:100A80000025FF2424E013480068A0B94DB94FF4B5
:100A900000511148FFF76FFC012532200D49086015
:100AA00009E04FF400510C48FFF763FC00254FF4B8
:100AB0007A70084908604FF49B700090A0B24FF420
:100AC000EB730A221146FFF7E3FD04B90F2464001B
:100AD000D9E7000004100020000802404FF04070E9
:100AE000E1EE100A7047000004200008000000201A
:100AF00024000000C4010008282000082400002071
:100B00005C100000E0010008000000000000000090
:100B100000000000000000000000000000000000D5
:100B200000000000000000000000000000000000C5
:100B300000000000000000000000000000000000B5
:100B400000000000000000000000000000000000A5
:10200000DD55AA660000000000000000000000008E
:102010000000000000BD01050000000000000000FD
:08202000010203040607080990
:0400000508000229C4
:00000001FF
